S00C0000636F64652E737265637D
S11300000C942A000C943F000C943F000C943F0085
S11300100C943F000C943F000C943F000C943F0060
S11300200C943F000C943F000C943F000C943F0050
S11300300C943F000C943F000C943F000C943F0040
S11300400C943F000C943F000C943F000C943F0030
S11300500C943F0011241FBECFE5D8E0DEBFCDBF16
S113006011E0A0E6B0E0E0E6F1E002C005900D92F8
S1130070AE33B107D9F70E9441000C94AE000C9442
S11300800000CF93DF93CDB7DEB72E970FB6F89469
S1130090DEBF0FBECDBF8FEF81BB87BB84BB88E0C3
S11300A0E0E3F1E0DE01119601900D928A95E1F70B
S11300B086E0E8E3F1E0DE01199601900D928A955D
S11300C0E1F77E018FE0E80EF11C9E012B5F3F4FAC
S11300D08E01075F1F4FD8016D918D0170E0660F8F
S11300E0771F660F771F660F771FFB01E05AFF4FDC
S11300F06F016C597F4F48EC50E026C0D4018D91BC
S11301004D0188BBD5018D915D01809582BB87EC43
S113011090E00197F1F700C000008216930671F792
S113012018BADB01819185BB8D91809582BB87ECE8
S113013090E00197F1F700C00000E217F30791F790
S113014015BA4150510929F0FE01319656014F016B
S1130150D5CF0E151F0509F0BECFBACFF894FFCF47
S1130160007FFFCCCCCCFF7F003C7EDBDBDBFFFFE2
S113017000C3C3C3C3E77E3C007EBDC3C3C3FFFF4C
S113018000DBDBDBDBDBFFFF00D8D8D8D8D8FFFFF0
S11301901FDFD8DBDBDBFFFF00FFFF181818FFFFB2
S11301A0C3C3C3FFFFC3C3C3C0C0C0FFFFC3CFCF1C
S11301B000C3E77E3C18FFFF030303030303FFFFB1
S11301C0FFFF60707060FFFFFFFF1C3870E0FFFFEF
S11301D07EFFC3C3C3C3FF7E0070F8CCCCCCFFFF4B
S11301E07EFFCFDFDBC3FF7E79FBDFDEDCD8FFFFE2
S11301F0CEDFDBDBDBDBFB73C0C0C0FFFFC0C0C0F6
S1130200FEFF03030303FFFEE0FC1E03031EFCE0EA
S1130210FEFF03FFFF03FFFE42E77E3C3C7EE74216
S113022040E0703F3F70E040C3E3F3FBDFCFC7C360
S111023001020408102040801100120E0E0B73
S9030000FC
