S00C0000636F64652E737265637D
S11300000C942A000C9434000C9434000C943400A6
S11300100C9434000C9434000C9434000C9434008C
S11300200C9434000C9434000C9434000C9434007C
S11300300C9434000C9434000C9434000C9434006C
S11300400C9434000C9434000C9434000C9434005C
S11300500C94340011241FBECFE5D8E0DEBFCDBF21
S11300600E946E000C948E000C940000813029F4E0
S113007081E285BB89E082BB0895823029F482E263
S113008085BB89E082BB0895833029F48CE085BB6D
S113009089E082BB0895843029F484E185BB89E03A
S11300A082BB0895853029F484E685BB88E082BB51
S11300B00895863029F484EA85BB88E082BB0895DC
S11300C0873029F484E285BB83E082BB08958830BD
S11300D021F484E285BB85E082BB08958FEF84BB65
S11300E08FE081BBB898C1E017E00F2EF8EDFF2E2A
S11300F0F02D08E3D1E08C2F0E94360013BFC0FF1F
S113010002C002BF01C0F2BE08B600FEFDCF13BE9E
S1130110D8BFCF5FC93079F7C1E0EDCFF894FFCFF6
S9030000FC
