:100000000C942A000C9447000C9447000C94470071
:100010000C9447000C9447000C9447000C94470044
:100020000C9447000C9447000C9447000C94490032
:100030000C9447000C9447000C9447000C94470024
:100040000C9447000C9447000C9447000C94470014
:100050000C94470011241FBECFE5D8E0DEBFCDBF12
:1000600010E0A0E6B0E0E4EEF3E002C005900D92EF
:10007000A236B107D9F720E0A2E6B0E001C01D9298
:10008000AD3CB207E1F70E94B6000C94F0010C946D
:1000900000001F920F920FB60F921124EF92FF9261
:1000A0000F931F932F933F934F935F936F937F9380
:1000B0008F939F93AF93BF93CF93DF93EF93FF9370
:1000C000F0906400CF2DD0E06091600070E080E09F
:1000D00090E00E946401CC0FDD1FCC0FDD1FFE01FC
:1000E000E756FF4F20813181428153810E94C00039
:1000F0000E943301E62E609360000091620010912F
:1001000063000F5F1F4F1093630000936200CB5991
:10011000DF4F688179818A819B810E942C010617BB
:10012000170764F081E08F0D8093640010926300E4
:10013000109262008D3010F010926400E8BAFF91C6
:10014000EF91DF91CF91BF91AF919F918F917F916F
:100150006F915F914F913F912F911F910F91FF9060
:10016000EF900F900FBE0F901F9018958FEF87BBE9
:1001700012BE81E089BF789482E083BFFFCF5058E0
:10018000BB27AA270E94D7000C94B6010E94A801A1
:1001900038F00E94AF0120F039F49F3F19F426F4A3
:1001A0000C94A5010EF4E095E7FB0C949F01E92F58
:1001B0000E94C70158F3BA176207730784079507AF
:1001C00020F079F4A6F50C94E9010EF4E0950B2EDD
:1001D000BA2FA02D0B01B90190010C01CA01A00199
:1001E0001124FF27591B99F0593F50F4503E68F1F4
:1001F0001A16F040A22F232F342F4427585FF3CF35
:10020000469537952795A795F0405395C9F77EF405
:100210001F16BA0B620B730B840BBAF09150A1F04E
:10022000FF0FBB1F661F771F881FC2F70EC0BA0FD4
:10023000621F731F841F48F4879577956795B7955C
:10024000F7959E3F08F0B0CF9395880F08F0992757
:10025000EE0F9795879508950E9433016894B11128
:100260000C94EA0108950E94CF0188F09F5798F0FE
:10027000B92F9927B751B0F0E1F0660F771F881FAB
:10028000991F1AF0BA95C9F714C0B13091F00E94C5
:10029000E901B1E008950C94E901672F782F8827D0
:1002A000B85F39F0B93FCCF3869577956795B395EC
:1002B000D9F73EF490958095709561957F4F8F4F5B
:1002C0009F4F0895E89409C097FB3EF49095809560
:1002D000709561957F4F8F4F9F4F9923A9F0F92F0C
:1002E00096E9BB279395F695879577956795B7958A
:1002F000F111F8CFFAF4BB0F11F460FF1BC06F5F70
:100300007F4F8F4F9F4F16C0882311F096E911C081
:10031000772321F09EE8872F762F05C0662371F0A2
:1003200096E8862F70E060E02AF09A95660F771FB6
:10033000881FDAF7880F9695879597F9089597F9AA
:100340009F6780E870E060E008959FEF80EC08957B
:1003500000240A94161617061806090608950024A4
:100360000A9412161306140605060895092E03941E
:10037000000C11F4882352F0BB0F40F4BF2B11F492
:1003800060FF04C06F5F7F4F8F4F9F4F089557FDF1
:100390009058440F551F59F05F3F71F04795880FF3
:1003A00097FB991F61F09F3F79F08795089512168A
:1003B00013061406551FF2CF4695F1DF08C0161636
:1003C00017061806991FF1CF8695710561050894E7
:1003D0000895E894BB2766277727CB0197F90895FE
:0403E000F894FFCFBF
:0203E4003200E5
:00000001FF
