:020000000C945E
:100002004E000C9400000C9400000C9400000C9420
:1000120000000C9400000C9400000C9400000C945E
:1000220000000C9402010C9400000C9400000C944B
:1000320000000C9400000C9400000C9400000C943E
:1000420000000C9400000C9400000C9400000C942E
:1000520000001027E80364000A00010000100001FC
:10006200100001000000000000000101E5072575F5
:100072002F253032752F253032750A253032753AE8
:10008200253032753A253032750080C00A000400EE
:100092006600020085028C000000F894EE27ECBB9B
:1000A200F1E0FBBFEBBFE5BF8DE0A2E0BB27ED9324
:1000B2008A95E9F780E098E0A0E6ED930197E9F7E9
:1000C200EEE8F0E085919591009761F0A591B591E8
:1000D20005901590BF01F00105900D920197E1F78F
:1000E200FB01F0CFEFE5EDBFE8E0EEBFC0E6D2E006
:1000F2000C944E015394ECE3E51511F4439455240A
:10010200ECE3E41511F473944424E8E1E71511F4E7
:10011200B3947724E0E2EB1519F4E6E0EA1508F46B
:1001220001C007C0EFE1EB1519F4E6E0EA1508F0AB
:1001320003C0E1E0BE2EA394EDE0EA1529F4E1E06C
:10014200AE2EF60131966F010895E0916102E03022
:1001520009F00895E3E6F2E0FA93EA93E0E7F0E0CB
:10016200FA93EA93F601662777270E94BE04EA2DE6
:100172000E944E04EB2D0E944E04E72D0E944E0475
:10018200E42D0E944E04E52D0E944E0488E10E9457
:1001920001046C960E945404A3E6B2E024C0E091EC
:1001A2006202E03021F0E5B3E095E17001C0E0E0E9
:1001B200E5BB0895E4E7F2E0FA93EA93EDE7F0E0B5
:1001C200FA93EA93E82D0E944E04E92D0E944E0410
:1001D200E62D0E944E048CE00E94010460960E946B
:1001E2005404A4E7B2E00E944D020895871421F45A
:1001F200941411F4651409F003C0E1E0E093620283
:1002020008950A921A92FA926A937A938A939A9327
:10021200AA93BA93EA93FA93EFB7EA93E5E8EDBDAE
:10022200EEEEECBD67DF91DFBADFE0DFE991EFBF11
:10023200F991E991B991A9919991899179916991EC
:10024200F9901990099018951A930A93E2B3EF6006
:10025200E2BB00E00330E8F4E1B3E078E1BB11B2C5
:10026200E02FA0E40E94AE04E129E1BB10E01430CB
:1002720070F410B2E12FA8E00E94AE04E12129F44B
:10028200A3E01A02F001E00F05C01F5FF0CF0F5F7D
:10029200E1CFEFEF099119910895E0E0EABBEBBBE2
:1002A200E7BBE8BBE1E0E4BBE0E0E5BBE1BBE2BB0E
:1002B200E3BFE2BFECBFEFBDE4E0EEBDE5E8EDBDBC
:1002C200EEEEECBDE0E0E7BDE6BDEBBDEABDE9BDAB
:1002D200E8BDE2BDE5BDE4BDE3BDE4E0E9BFE0E0C9
:1002E200E5BFE4BFEAB9E0E8E8B9E0E0E0BFE6B9BB
:1002F200EDB9E6BFA0E1E1D07894E0916102E0308F
:1003020009F058DF0E945B041F3FE1F70E945B0483
:100312001F3FE1F3A2E3B0E00E949C041F3F69F398
:100322001B3019F4E0E0E0936202193071F4E091BD
:100332006102E03039F4E1E0E0936102E0E0E09351
:10034200600203C0E0E0E0936102E0916102E0300C
:10035200A1F21A3011F410E001C01F5F1A3068F6E2
:10036200E0916002E03029F4133038F6AAE01A0274
:10037200802CA0916002A13041F4E4E1E81511F46F
:10038200143008F401C0B9CF810EA0916002A230EE
:1003920031F4163008F0B1CFAAE01A02902CA091E5
:1003A2006002A33009F4910EA0916002A43031F4EE
:1003B200163008F0A2CFAAE01A02602CA0916002C7
:1003C200A53021F4610EE0E0E0936102E091600269
:1003D200EF5FE093600291CFFFCFAA93EBB3EF7090
:1003E200AE2FE881E07FEA2BEBBB8DE08A95F1F737
:1003F200DA9A8DE08A95F1F7DA988DE08A95F1F72D
:1004020089C0AA93A881E9DFE881E295E883A881FF
:10041200E4DF85E88A95F1F77DC0AA93E881F0E0F0
:10042200EB57FD4FE081A981AE0FEBDFE981E0934D
:100432008902E881E0938A0222960895A2E00E944E
:100442006204ACE0DEDFA1E00E946204E0E0E0933F
:100452008A02E09389020895AA93A881AA3031F012
:10046200E0918B02A0918902AE1760F0E0E0EA937E
:10047200A0918A02AF5FA0938A02CFDFA881AA303F
:1004820009F448C0E0918902EF5FE0938902D89AAB
:10049200A881B7DFD8983EC0BA93AA931A93A981CC
:1004A200BA81ED91A983BA831E2FE03019F0A12FF2
:1004B200D3DFF5CF188123960895AA93EAB3E06FAC
:1004C200EABBD29AD09AD19ADA98D898D998E88188
:1004D200E0938B02E058E0938702E881E054E093D6
:1004E2008802A4E1B0E00E949C040E9468040E9479
:1004F20068040E946804A0E270DF88EC90E0019733
:10050200F1F7A8E27EDFA4E07CDFA5E87ADFA6E0CF
:1005120078DF94DF21960895BA93AA931A930A93E7
:10052200AA81BB8112960E94B604309759F1AA8122
:10053200BB8114960E94B6048F01309761F002309D
:10054200E0E01E0798F0F80131978F01AA81BB8184
:100552001496ED93FC93AA81BB811296ED91FD91C5
:100562003196FE93EE933197AC81A083AA81BB8131
:100572000E94B604FF232AF0ED91FD913196FE937D
:10058200EE9306C0AA81BB81EFEFFFEFED93FC93E0
:100592001981088125960895BA93AA9326970E94F5
:1005A200C30410E0AC85BD85E0E0F0E0ED93FC9380
:1005B200EA89FB893196EA8BFB8B3197E4912E2FE6
:1005C200E03009F415C1E12FE03039F4253211F49D
:1005D20011E002C00E9470040AC1E130A9F4253280
:1005E20019F40E94700402C112E040E000E02D32D2
:1005F20011F401E0FCC02B3211F44BE2F8C02032BE
:1006020011F440E2F4C002C0E23039F450E013E0E9
:10061200203311F40068EBC003C0E33009F0E7C0F7
:10062200203310F02A3308F007C0AAE05A9F502D59
:10063200E22FE0535E0FDBC0E22FE33649F40E9463
:100642007704E889F989A481AA930E947D04CEC027
:10065200E33741F40E9477040E9483040E94350428
:100662001E2F0AC0E03761F40E9477040E948304BF
:100672000E9441041E2F086002600F7730E034C0F0
:10068200E43611F0E93611F4046002C0E53731F4C2
:10069200E4E5F0E0EE83FF8315E00CC0E83511F4E9
:1006A200086003C0E83709F0A1C0EEE5F0E0EE8390
:1006B200FF8314E002FF14C00E9477040E948D049D
:1006C200AB85AA233AF4EA85FB850E94AA04EA874D
:1006D200FB874DE2403011F01F5F01C00B7F04C069
:1006E2000E9477040E948D0400FD11C0151778F452
:1006F20007FF08C002FF04C00B7F242F115001C066
:1007020020E301C020E20E9470045150EFCF312F4C
:1007120001FF17C03030A1F003FF06C0EE81FF8158
:100722002591EE83FF8305C0AE81BF812D91AE83FB
:10073200BF830E947004503009F051503150EACF0B
:100742004BC020E3EE81FF810E94BA04E887F9875B
:10075200EE81FF813296EE83FF83E885F985AA85D3
:10076200BB85AE17BF0750F02F5FA885B985EA8514
:10077200FB85EA1BFB0BEA87FB87EFCF2A3328F0C6
:1007820003FF02C0295F01C0295D04FD1AC02133A5
:1007920020F4A885B985119709F409C0531710F000
:1007A20000FF01C013C020E207FF0BC020E300617D
:1007B20002FF07C00B7F4A930E947D04503009F06C
:1007C20051500E947004503009F051503150A885A8
:1007D200B985129708F0B5CF00FF08C0503031F04C
:1007E2005150E0E2EA930E947D04F8CF10E0E0CE9F
:1007F200AC85BD850E94B6040E94CA046496089521
:10080200FF92F82E26970E94C5040E949504309705
:1008120019F4EFEFFFEF23C0DE0116960E94A60443
:100822008D010E949504EE83FF83E0E0E887E9876B
:10083200DE011A960E94A6040E94B604FA93EA9375
:100842001A930A93EDE8F2E0FA93EA93DE011A961C
:10085200A3DE9F01AE81BF81E0E0EC93F9010E942B
:10086200CC042A96FF900895BA93AA93A991B991BC
:10087200EE27FF276D91662311F03196FBCF089585
:10088200BA93AA93AA27BB27E991F9910590002070
:1008920011F01196FBCFFD010895FF2766277727F8
:1008A2000E94BE0408950E941F02E0E0EA93A0E0C5
:1008B2000C940E020E9425011E2FA2E3B0E00C94BC
:1008C2009C040E940202A3E0B0E00C949C04A0E30A
:1008D2000E94EE0188EC90E00197F1F708952A93C7
:1008E200AD85BE85EF85F88909950895E889F9896E
:1008F2003497E88BF98B0895AD85BE85EF85F8892D
:1009020009950895A889B98914960E94B604EE83C0
:10091200FF83AE81BF810895A889B98914960E9488
:10092200B604EA87FB870895DE011C960E94A6049E
:100932000E94B6040895109639F080ED97E0019771
:10094200F1F7A8951197C9F708950024AF0DB01DCE
:100952000895F195E195F0400895EE230E2EEA2FC9
:1009620019F0E6950A94E9F70895ED91FC91119733
:1009720008950590F491E02D08957A936A93FA937D
:10098200EA9308955A934A933A932A931A930A93AD
:1009920008955D814C813B812A81198108810895E6
:00000001FF
